:100000000C9480010C949D010C949D010C949D0115
:100010000C949D010C945F120C949D010C949D0115
:100020000C949D010C949D010C949D010C949D01D8
:100030000C949D010C949D010C945E170C949D01F1
:100040000C949D010C949D010C94D2150C942316D4
:100050000C949D010C949D010C949D010C949D01A8
:100060000C949D010C949D010D2A25632532757E0B
:100070002E2A2563253032757E2E2A2563253032BF
:10008000752A25632563000D2A2563253032752ADC
:100090002563253032752A256325303275000D0A17
:1000A0005465726D696E616C206D6F646520726558
:1000B0006164792E0D0A000B0C000D0A5465726DF7
:1000C000696E616C206D6F646520657869740D0AD6
:1000D000000D7E2532752E253032752E2530327575
:1000E00025632563000D7E78253032752E2530324C
:1000F000752E253032752563000D7E6078253032EF
:100100007525303275253032752563000C2020327C
:1001100034000C202031320054513A3132303A4D03
:10012000383A4F343A434847464945443E43483CB1
:1001300047464945443E43483C474649454644486E
:100140002E004E69786965436C6F636B2076312EA3
:100150003030202861204465657020426F6E6469EC
:10016000207468696E6729000D605859000D3C3E87
:100170007879000D0A25530D0A00001F1C1F1E1F51
:100180001E1F1F1E1F1E1F000A15202B35142A1F9D
:100190003F090B0002040507E9EE0288E102DFD403
:1001A00002EFC8029FBD0205B302F4A8026F9F02CE
:1001B0008796020B8E02188602937E02747702BB2A
:1001C0007002686A02716402CF5E027D5902755442
:1001D00002B74F023F4B02054702084302473F0266
:1001E000B73B025D3802333502383202652F02BC5C
:1001F0002C023A2A02DB2702A12502822302872150
:100200000208FD01E9EE0177E101DFD401D5C80163
:100210009FBD01FAB201EAA8016F9F017496010B1C
:100220008E010F8601917E01747701BB7001666AB1
:1002300001726401CF5E017D5901755401B74F0110
:100240003E4B01054701074301453F01B73B015DB7
:100250003801353501373201652F01BC2C013A2AAE
:1002600001DB27019F2501822301842101A21F01B7
:10027000D71D012C1C01971A01181901B017015D37
:1002800016011C1501ED1301CF1201C01101C010A0
:1002900001CF0F01ED0E01170E014C0D018D0C0168
:1002A000D80B012E0B018D0A01F60901670901DF48
:1002B0000801600801E707017607010B0701A506A1
:1002C00001460601EB0501960501460501FA040108
:1002D000B204016F04012F0401F30301BA03018486
:1002E0000301520301220301F50201CA0201A20225
:1002F000017C0201580201370201170201F90101D4
:1003000011241FBECFEFD8E0DEBFCDBF11E0A0E0CB
:10031000B1E0E6E5F7E302C005900D92A031B10728
:10032000D9F712E0A0E1B1E001C01D92AF39B107E9
:10033000E1F70E94C2170C94A91B0C9400002F92A5
:100340003F924F925F927F928F929F92AF92BF9215
:10035000CF92DF92EF92FF920F931F93CF93DF9391
:1003600000D000D00F92CDB7DEB7982E8B018DE76D
:1003700090E061E00E949F16A82E8EE390E061E07D
:100380000E949F16B82EFF2481E0A1E3EA2E21E00F
:10039000B7E84B2EB2E05B2E38E6232E30E0332E4A
:1003A00048E7842E5BE3C52E67E1762E882309F4A7
:1003B00069C0213031F0223039F0233051F039E377
:1003C00004C09E2D39E302C03E2D99E3F9E3DF2EF0
:1003D00003C0DE2C39E399E39920C1F4D8018C9154
:1003E000BE016E5F7F4FAE014F5F5F4F2D833C8339
:1003F0009B830E94A30889812D813C819B81882356
:1004000011F088E501C088E7898304C0F801808184
:100410008A8389824DB75EB7445150400FB6F89435
:100420005EBF0FBE4DBFEDB7FEB73196ADB7BEB7DD
:1004300012965C924E921197338222829483158297
:100440008A818683178230871186D80111968C9114
:10045000119782871386D486158612968C9186878B
:100460001786908B118A8981828B138A2D830E9433
:100470008718EDB7FEB774960FB6F894FEBF0FBE9F
:10048000EDBF2D8180E02D830E94000B2D818532F0
:1004900009F047C09A1541F4F1E381E0EF1609F045
:1004A0001CC1E9E3EE2E23C19B1509F01FC141E0F9
:1004B000F41609F01BC12D830E94DE07D82E2D8172
:1004C00080FF05C081E060E00E94D1092D81D1FE4E
:1004D00006C085E060E02D830E94D1092D81D2FE07
:1004E00006C089E060E02D830E94D1092D81D3FEF2
:1004F00006C08DE060E02D830E94D1092D81D4FEDD
:1005000006C081E160E02D830E94D1092D81D5FED6
:10051000EDC085E160E02D830E94D10980E02D814E
:10052000E6C0813041F4D8018C9181508C9387FFD3
:1005300013C17C9211C1853049F4F80180818F5F2D
:100540008083883108F408C1108206C1893071F4B3
:10055000D80111968C911197815011968C93119717
:1005600087FFF2C01196CC921197EEC08D3049F4FE
:10057000F80181818F5F81838C3308F4E5C011829B
:10058000E3C0813171F4D80112968C911297815099
:1005900012968C93129787FFDBC01296CC9212971B
:1005A000D7C0853149F4F80182818F5F82838C3313
:1005B00008F4CEC01282CCC08232F9F4933019F420
:1005C000D8011C9217C09C3029F4F801118272E006
:1005D000F72EBAC0903339F4D80112961C921297B4
:1005E00062E0F62EB5C0913209F080C0F8011082A9
:1005F0001182128252E0F52EAFC0843241F4290FED
:1006000012160CF0A3C0243008F0A4C09AC08332A4
:1006100009F042C0213081F4D8018C91890F8C936C
:1006200087FF03C0885E8C93CCCE883108F4C9CE96
:100630008851F8018083C5CE2230B1F4D8011196DB
:100640008C911197890F11968C93119787FF05C094
:10065000845C11968C931197B7CE8C3308F4B4CE8A
:100660008C53F8018183B0CE2330D1F5D801129696
:100670008C911297890F12968C93129787FF05C061
:10068000845C12968C931297A4CE8C3308F4A1CE7E
:100690008C53F80182839DCE893109F44EC08D318F
:1006A00009F44DC0FF2061F48430E1F08830D1F0CE
:1006B0008C30C1F08031B1F08431A1F0883191F0FB
:1006C000823099F0863089F08A3079F08E3069F086
:1006D000823159F0863151F408C041E3E42E07C05D
:1006E00081E005C0FF24F39401C0FF2480E02430A2
:1006F00008F45CCE8A2D2D830E94E3168B2D0E9478
:10070000E31681E02D81243009F080E00F900F90F6
:100710000F900F900F90DF91CF911F910F91FF904D
:10072000EF90DF90CF90BF90AF909F908F907F9091
:100730005F904F903F902F90089524E0DBCF25E00D
:10074000D9CF31E3E32E35CE22E03ECE91E3E92E40
:1007500023E03FCE81E3E82E21E033CE2F923F927B
:100760004F925F926F927F928F929F92AF92BF92C1
:10077000CF92DF92EF92FF920F931F93CF93DF936D
:100780008C018DE790E061E00E949F16982E8EE329
:1007900090E061E00E949F16C82ED0E081E0C1E3A6
:1007A000FC2EC1E027E8422E22E0522E37E8232E0D
:1007B00030E0332EDD24D39440EDA42E47E0B42E58
:1007C00053E3652E58E0752E6CE0862E882309F4DD
:1007D00058C0823069F4D8016D917C9111971296BE
:1007E0008C910E941C09F8019381891708F4838376
:1007F000C13031F0C23039F0C33049F089E304C070
:100800009F2D89E302C08F2D99E329E303C02F2D8B
:1008100089E399E34DB75EB7405150400FB6F89465
:100820005EBF0FBE4DBFEDB7FEB73196ADB7BEB7D9
:1008300012965C924E921197338222829483158293
:10084000D80112969C911297968317828087118601
:1008500013968C91139782871386248715868D9122
:100860009C9164E670E00E945118978786870E94E9
:100870008718EDB7FEB770960FB6F894FEBF0FBE9F
:10088000EDBF80E00E94000B292F8532C1F599153C
:1008900041F4F1E381E0FF1609F03DC1B9E3FB2E1D
:1008A00043C19C1509F03FC1D13009F03CC10E9401
:1008B000DE07E82E80FF04C081E060E00E94D109DD
:1008C000E1FE04C085E060E00E94D109E2FE04C0C0
:1008D00089E060E00E94D109E3FE04C08DE060E0A1
:1008E0000E94D109E4FE04C081E160E00E94D109C8
:1008F000E5FE19C185E160E00E94D10914C1813093
:1009000071F4D80112968C911297815012968C93A3
:100910001297882369F412968C92129709C0853039
:1009200049F4F80182818F5F82838D3008F0D28292
:10093000C1E051CF8930A1F4D80113968C9113975F
:10094000815013968C9313978823F9F46D917C91C1
:10095000119712968C910E941C09F801838315C08F
:100960008D30A9F4D8011396CC911397CF5F1396CD
:10097000CC9313976D917C91119712968C910E9454
:100980001C098C1710F4F801D382C2E024CF813106
:1009900089F4D8018D919C911197019711969C93A0
:1009A0008E93B7E0803D9B0708F0E1C0F8017182AB
:1009B0006082DDC0853189F4D8018D919C911197B9
:1009C000019611969C938E93B8E084339B0708F4AC
:1009D000CEC0F801B182A082CAC08232F9F493304D
:1009E00029F4D8011296DC92129716C09C3021F49B
:1009F000F801D382D2E0C9CF903331F4D8011196F7
:100A0000BC92AE92D2E0B3C0913209F08CC0F80132
:100A1000D282D382B182A082D2E08ACF843241F4E2
:100A2000C90F1C160CF0A5C0C43008F0A6C09CC0AD
:100A3000833209F04FC0C130B1F4D80112968C91C5
:100A40001297890F12968C93129718162CF0845FC8
:100A500012968C931297BFCE8D3008F4BCCE8C507A
:100A6000F8018283B8CEC230D1F4D80113968C91AC
:100A70001397890F13968C9313976D917C9111970F
:100A800012968C910E941C09F8019381191614F09A
:100A90008383A1CE891708F09ECED3829CCEC3302B
:100AA000E9F5F80180819181820F911D9183808306
:100AB000F7E0803D9F0728F4D80111967C926E9252
:100AC0008ACEB8E084339B0708F485CEF801B18262
:100AD000A08281CE893109F454C08D3109F453C00C
:100AE000DD2361F48430E1F08830D1F08C30C1F046
:100AF0008031B1F08431A1F0883191F0823091F0F1
:100B0000863081F08A3071F08E3061F0823151F0A0
:100B1000863149F407C0A1E3FA2E06C082E004C082
:100B2000D1E001C0D0E080E0C43008F44FCE892D80
:100B30000E94E3168C2D0E94E31681E0C43009F078
:100B400080E0DF91CF911F910F91FF90EF90DF90A8
:100B5000CF90BF90AF909F908F907F906F905F905D
:100B60004F903F902F900895F1E3FF2E41CEC3E0C8
:100B700032CEE1E3FE2EC3E04ACE71E3F72EC1E0B0
:100B80003FCEC4E0D4CFC5E0D2CFCF93DF9300D027
:100B90008EE990E0EDB7FEB7928381830E94F5184D
:100BA00000D087E892E0EDB7FEB79283818387EBB0
:100BB00090E0948383830E9487180F900F900F908A
:100BC0000F9080E00E94DD0A853081F00E94901431
:100BD000EC0197FDF6CF8B31910541F00E94FE1498
:100BE0008C2F67E872E00E945A0BEBCF00D08AEBA3
:100BF00090E0EDB7FEB7928381830E94F5180F90C5
:100C00000F908BE067E872E00E945A0BDF91CF9162
:100C10000895CF93DF93CDB7DEB728970FB6F8943A
:100C2000DEBF0FBECDBF8CE069E772E00E945A0BB9
:100C300087E892E00E94260D81E00E94A40D00E06A
:100C400010E0FF24E9E7CE2EE2E0DE2EF1EDAF2E3C
:100C5000F0E0BF2EA5EE8A2EA0E09A2EB4E66B2E11
:100C6000712C89EF482E80E0582E22E1222E21E0BF
:100C7000322E03C012E060C0102F1130D9F11130B4
:100C800020F0123009F08BC057C0CE010296BE0191
:100C90006F5F7F4F0E94B5088981882311F088E536
:100CA00001C088E789832DB73EB72E5030400FB67C
:100CB000F8943EBF0FBE2DBFEDB7FEB73196ADB76E
:100CC000BEB71296DC92CE921197B382A2829A811D
:100CD000948315829B81968317829C8190871186CD
:100CE00082871386F48615860E948718EDB7FEB7B3
:100CF0003E9650C0CE0102960E94CB082DB73EB75B
:100D00002C5030400FB6F8943EBF0FBE2DBFEDB74C
:100D1000FEB73196ADB7BEB71296DC92CE92119760
:100D2000938282828A81848315828B818683178253
:100D30008C818087118627C0CE0105960E94FA0813
:100D40008D819E81B3010E9451188D839E832DB7A2
:100D50003EB72C5030400FB6F8943EBF0FBE2DBFAB
:100D6000EDB7FEB73196ADB7BEB71296DC92CE9214
:100D70001197538242822F812483158228852683EE
:100D8000178280879187F28613860E948718EDB7B5
:100D9000FEB73C960FB6F894FEBF0FBEEDBF89E7D5
:100DA00092E00E94320D80E00E94000B813021F41D
:100DB000123009F05FCF60CF8531B9F5123008F0FD
:100DC0005BCF0023B1F400D000D0ADB7BEB7129610
:100DD000DC92CE921197ECE0F1E01496FC93EE9346
:100DE00013970E9487180F900F900F900F9001E0BB
:100DF00013C000D000D0ADB7BEB71296DC92CE9231
:100E0000119714963C922E9213970E9487180F9078
:100E10000F900F900F9000E089E792E00E94320D52
:100E200084EF91E00E94BB0927CF883019F40E941B
:100E3000C50523CF8C3109F020CFCE01123081F4CB
:100E400005960E94FA08CE0105960E94AE03F82E80
:100E5000882309F471CFCE0105960E940B096CCF4F
:100E600002960E94CB08802FBE016E5F7F4F0E94CA
:100E70009F01F82E882309F400CFCE0102960E942C
:100E8000EE08FBCE0F931F93CF93DF93EC01662305
:100E900071F0062F015010E00E94901497FDFCCFD6
:100EA0008D3059F4C10FD11D18820E948615188209
:100EB000DF91CF911F910F910895883069F411232C
:100EC00059F3115088E00E94FE1480E20E94FE1443
:100ED00088E00E94FE14E0CF8032F0F21017E0F6B6
:100EE000FE01E10FF11D80830E94FE141F5FD4CF2D
:100EF0001F93CF93DF9383E00E94A40DC0E3D0E063
:100F0000C0FF03C088E691E002C08DE691E069E78A
:100F100072E00E94CF1816E0CE0169E772E00E94ED
:100F2000A3181150C9F789E792E00E94320D80E0C2
:100F30000E94000B863221F42196CA33D10501F7B5
:100F4000DF91CF911F91089510921101109210011D
:100F500010921301109212011092150110921401B7
:100F60001092170110921601109219011092180197
:100F700010921B0110921A0110921D0110921C0177
:100F800010921F0110921E01109229011092280147
:100F9000109227011092260110922501109224012F
:100FA000109223011092220181E080932A0108957A
:100FB00080932A0108958091290108958091280144
:100FC00008958091270108959FB7F8948091270193
:100FD000109227019FBF08958091260108959FB721
:100FE000F89480912601109226019FBF0895809168
:100FF000250108959FB7F89480912501109225014D
:101000009FBF08958091240108959FB7F89480911F
:101010002401109224019FBF089580912301089517
:101020009FB7F89480912301109223019FBF0895E8
:1010300080912A01882309F485C04FEF1C994EEF57
:1010400031994D7F32994B7F3399477F34994F7E49
:1010500035994F7D4A994F7B4B994F7740932901A2
:10106000809122014817F9F480912001909121018B
:101070002FEF8F3F920749F080912001909121013D
:1010800001969093210180932001809120019091FD
:10109000210161E0843D960711F44093270120E08F
:1010A00030E051E005C01092210110922001F7CFED
:1010B000F901E05FFE4F80819181652F6423E9F0A3
:1010C0006FEF8F3F960799F101968F31910559F493
:1010D00060912601652B6093260160912801652BA4
:1010E0006093280124C062E08137960701F5609182
:1010F0002301652B609323011AC08F319105A8F05D
:1011000060912501652B6093250170912801652F61
:10111000609567236093280162E08137960728F481
:1011200080912401852B8093240180E090E09183BD
:101130008083550F2E5F3F4F2031310509F0B8CF26
:10114000409322010895FB0191E08C3008F490E077
:10115000DA019C938083882319F48CE080830895BE
:101160008D3010F08C5080830895CF93DF93FC0175
:10117000AB019FB7F894DF01CBE2D1E083E00990A7
:101180000D928150E1F79FBF8081BF010E94A308AB
:10119000DF91CF9108952FB7F894FC01ABE2B1E055
:1011A00083E00D9001928150E1F72FBF08952FB792
:1011B000F894ABE2B1E0FC0183E001900D92815024
:1011C000E1F780912B01982F915090932B0166238A
:1011D00019F0855F80932B012FBF08952FB7F894E6
:1011E000ABE2B1E0FC0183E001900D928150E1F7A8
:1011F0002FBF08952FB7F89440912E0150912F01E1
:101200006091300170913101FC0140835183628310
:1012100073832FBF08952FB7F894FC0180819181CB
:10122000A281B38180932E0190932F01A09330016E
:10123000B09331012FBF0895E82FF0E0E658FE4F3C
:10124000E491823071F49B012370307021153105D7
:1012500041F4CB0164E670E00E945118009709F058
:10126000EF5F8E2F0895CF93DF93CDB7DEB727972B
:101270000FB6F894DEBF0FBECDBF8AE089831A8215
:101280001B82CE0101960E94EE088BE18F8386E0DF
:101290008E8389ED97E09D838C83CE0104960E9416
:1012A0000B0927960FB6F894DEBF0FBECDBFDF91B6
:1012B000CF9108958093320108950F931F93CF9398
:1012C000DF93809132018823C9F180912D018F5FD6
:1012D00080932D018C3390F110922D0180912C017F
:1012E0008F5F80932C018C3348F110922C018091F8
:1012F0002B018F5F80932B01883100F110922B011D
:10130000109131011F5F1093310100913001C091A4
:101310002E01D0912F01802FBE010E941C09811740
:1013200068F40F5F009330010D3040F081E080934E
:1013300030012196D0932F01C0932E01DF91CF91E0
:101340001F910F9108958330910518F0029701972E
:10135000F1F70895CF93DF93EC010E94A309CE012A
:101360000E94A309CE010E94A309CE010E94A309F5
:10137000DF91CF910895CF93DF93EC0105C086EE06
:1013800093E00E94AA0921972097C9F7DF91CF9196
:1013900008958FB7F89410923401109233018FBFE3
:1013A00008959FB7F894E0913401F0E0EE0FFF1F2D
:1013B000EB5CFE4F8083E0913401F0E0EE0FFF1F05
:1013C000EB5CFE4F6183809134018F5F8093340129
:1013D00080913401803110F0109234012091340159
:1013E00080913301281729F4809133018F5F809316
:1013F00033019FBF0895DF92EF92FF920F931F93E7
:10140000CF93DF930E94EF07D82E0E94FA07E82EB1
:101410000E940508F82E0E941008082F0E94DE077F
:10142000182FC4E0D1E08D2F8D2129F08C2F83500F
:10143000612F0E94D1098D2F8E2129F08C2F82508F
:10144000612F0E94D1098D2F8F2129F08C2F81507F
:10145000612F0E94D1098D2F802321F08C2F612FC5
:101460000E94D109DD0FCC5FC432E9F60E94E40787
:10147000682F882319F082E20E94D1090E94571236
:10148000682F882319F083E20E94D1090E944F122D
:10149000682F882319F084E20E94D1090E945B170B
:1014A000D82FC0E00CC0D0FF08C08C2F61E00E9494
:1014B000401785E26C2F0E94D109CF5FD695DD23BE
:1014C00091F7DF91CF911F910F91FF90EF90DF90F7
:1014D0000895813270F4282F30E02150304023707D
:1014E000307081E090E02115310529F080E090E036
:1014F000089580E090E00895813270F4282F30E064
:10150000225030402370307081E090E02115310589
:1015100029F080E090E0089580E090E00895813225
:1015200070F4282F30E0235030402370307081E079
:1015300090E02115310529F080E090E0089580E0E9
:1015400090E00895813260F4282F30E023703070ED
:1015500081E090E02115310529F080E090E00895C8
:1015600080E090E0089591E0823209F090E0892FC8
:10157000089521E030E0813220F0823211F020E045
:1015800030E0822F089591E0843209F090E0892FB5
:10159000089591E0833209F090E0892F0895982F03
:1015A000935281E0923008F080E00895982F955290
:1015B00081E0923008F080E008950E94FB093FB777
:1015C000F89490913401809133019817A9F0E0913B
:1015D0003301F0E0EE0FFF1FEB5CFE4F8081918145
:1015E000209133012F5F209333012091330120316B
:1015F00028F01092330102C090E080E03FBF0895D0
:10160000CF93DF930F92CDB7DEB704C089830E94DA
:10161000FB09898120913401909133012917B1F39D
:101620000E94DD0A0F90DF91CF9108950E94FB097F
:101630002FB7F8949091340180913301981751F0AD
:10164000E0913301F0E0EE0FFF1FEB5CFE4F808175
:10165000918102C090E080E02FBF0895FC0180E4FA
:1016600011928150E9F70895E62FF0E0E957FE4F17
:10167000E491BC016E0F711DFB01E40FF11D20838D
:101680000895FC01662339F08581982F937019F035
:101690008D7F8583089582818F5F8283958194FFFA
:1016A00005C0873030F086E082830895863008F0E8
:1016B000128208951F93CF93DF93182FFB01C485E7
:1016C000D5859C818053992369F0913021F48A302B
:1016D00038F48B8305C0923019F4873008F48A837C
:1016E0001C82D5C08A3060F0812F8154893058F037
:1016F0008052893040F0103209F0CFC083E005C03D
:10170000182F81E002C0182F82E0EA81E63018F538
:101710009D819C7061F4F0E0E957FE4FE491A8814F
:10172000B981AE0FB11D9AE01D929150E9F7823058
:1017300049F4888199816A8140E02B810E94340BB1
:101740001F5F02C0833039F0888199816A81412FFF
:101750002B810E94340BCE0161E00E94410B8D81F0
:10176000877F73C08881998166E033C088819981C1
:1017700066E040E020E00E94340B8881998167E0B8
:1017800028C08A81982F9250923038F0843008F423
:101790007EC00AC08A81823020F48881998166E007
:1017A00006C0843008F073C08881998167E040E00A
:1017B0002B8111C08881998168E0F9CF8881998156
:1017C00068E007C08881998169E0F1CF88819981BB
:1017D00069E040E020E00E94340B59C08B818823EF
:1017E00009F455C0815009C08B81893008F04FC081
:1017F0008F5F03C081E022C089E08B8348C08D8168
:101800008E7F23C08D81816020C08D8182601DC04C
:101810008D818B7F1AC08D81846017C08A81815031
:101820008A8387FF07C08D8184FF02C01A8202C0AD
:1018300085E08A838D81886008C082E08C8327C020
:101840008D81806102C08D818F7E8D8320C08881D3
:1018500099810E942E0B0DC0888199810E942E0BC8
:1018600016C08A8181508A8387FF11C08D8184FFD1
:1018700002C01A820CC085E08A8309C0CE0160E0F4
:101880000E94410B04C089E08B831A821D8280E094
:1018900090E0DF91CF911F9108951C3309F47DCF23
:1018A0001D3370F5133209F4ADCF143290F41B30B0
:1018B00051F31C3038F4193009F31A3068F6183037
:1018C00031F7CFCF1D30A9F21D3008F21132F9F6F1
:1018D0009CCF193209F451CF1A3248F4163209F468
:1018E00097CF183209F43ECF143289F688CF1C32D4
:1018F00009F450CF1E3209F444CF1A3241F67ACFA0
:101900001F3509F497CF1036C8F4193509F45ACFAA
:101910001A3550F4103409F490CF183509F44ACF31
:101920001E3309F0B4CF40CF1D3509F45DCF1E350D
:1019300008F074CF1B3509F0AACF50CF1B3709F43C
:101940007FCF1C3750F4183709F438CF193709F412
:101950003DCF103609F09BCF09CF1D3709F473CF67
:101960001D3708F458CF1E3709F091CF45CF80912D
:10197000000187FF3AC080E090E021E030E0E09194
:101980005501F0915601E80FF91F50814091570120
:10199000451708F4322B27FF07C00DB407FEFDCF13
:1019A0003EBD21E030E001C0220F01968034910558
:1019B00031F70DB407FEFDCF2A9A2A98809157017E
:1019C0008F5F80935701893080F01092570180918A
:1019D00000018062809300018091000186FF05C0B4
:1019E000809100018F77809300010895882361F032
:1019F000809100018F7B80930001809100018068BD
:101A000080930001409A0895809100018F77809320
:101A1000000140980895CF93DF93FC01EB01CA01C8
:101A20002AE53BE0318720871386128622E0238354
:101A300075876487598348830E942E0B1A8289E038
:101A40008B831D821C82DF91CF910895DC011C964F
:101A5000ED91FC911D978081918190935601809327
:101A600055010895CF933FB7F89420910001206469
:101A700020930001209100012F7D209300012091EF
:101A800000012C60209300013FBF709155016091CF
:101A90005601DC011C96ED91FC911D97C081E181FE
:101AA0002091000125FFFCCF209100012F7D209384
:101AB0000001409100014695469543702091000138
:101AC000237050E030E042175307A4F42091000146
:101AD00020682093000120910001269526952F5F14
:101AE0002370220F220F30910001337F322B30936D
:101AF0000001CFCFAC2FBE2FE72FF62F30E420E030
:101B00005D914081552321F0451738F44F5F03C0A4
:101B1000442319F0415040832F5F3196315081F7B3
:101B20003091000130683093000130910001337F23
:101B300030930001222309F0ACCF809100018F7B0C
:101B400080930001CF9108952FB7F894843008F066
:101B500083E08370909100019C7F982B909300010B
:101B60002FBF089520915A018091580190915901F9
:101B7000222319F4FC0180810BC0213019F4FC01EF
:101B8000849106C0223019F40E94F61A01C080E048
:101B9000982F91569A3108F48F7D209158013091F9
:101BA00059012F5F3F4F30935901209358010895F9
:101BB000E1E8F0E08081808310928500109284003B
:101BC00010926F0085E097E49093890080938800DD
:101BD00080E48093800088E08083219A299808958A
:101BE000E1E8F0E0208120831092850010928400CB
:101BF000909389008093880080816770682B608350
:101C00000895882321F080918100809381000895B8
:101C100008951092790181E00E94010E8FEF90E00B
:101C200060E00E94F00D0895EF92FF920F931F93D2
:101C3000CF93DF930F92CDB7DEB78C0169830E94FB
:101C4000090E1093590100935801698160935A015C
:101C5000EDE5F1E080E01082DF01129711961C9211
:101C60001E928F5F33968A30B1F70E94B20D8B358A
:101C700009F042C00E94B20D803211F08A33A9F7F8
:101C80000E94B20D803211F08A3311F40E94B20D1D
:101C9000EE24FF240EC0C701880F991F63E0EE0CED
:101CA000FF1C6A95E1F7E80EF91EE20EF11C0E9496
:101CB000B20D282F20532A3070F320915801309113
:101CC00059012150304030935901209358019FEF22
:101CD000E916F10420F4E114F10429F007C04EEFF5
:101CE000E42EF12C03C09FEFE92EF12CE0925D0170
:101CF00030935C0120935B01882309F0B6CF1093E9
:101D000059010093580182E0809379010F90DF918F
:101D1000CF911F910F91FF90EF90089581E09091E6
:101D20007901911180E008955F926F927F928F9276
:101D30009F92AF92BF92CF92DF92EF92FF920F935A
:101D40001F93CF93DF9380917901882309F474C3A3
:101D500080917A0190917B01019690937B01809311
:101D60007A01CC24DD24D0E0C0E0A5E1BA2EFF2426
:101D7000F394B8E0EB2E13E1812E03E0602E712C7A
:101D800021E1922EAA24AA943FE0532E01C0D0E074
:101D900080917C01882321F0909179019230A1F506
:101DA000ADE7B1E080E090E0FC01EF56FE4FE4913A
:101DB000ED93019687309105B9F71092840184E084
:101DC000809385011092860110928701809388018B
:101DD0001092890187E080938A0182EE94E09093CB
:101DE0008C0180938B0110927B0110927A018FEF0E
:101DF00090E060E00E94F00D80E00E94010EF09201
:101E00007901F0927C0147C2813009F09FC00E94A5
:101E1000B20DC82F803209F4BBCF8A3309F4B8CF92
:101E20008154873068F4C82FE82FFF27E7FDF0952D
:101E3000E358FE4F8081809384011092860106C092
:101E4000C23511F0CC3249F4A092840182E0809333
:101E50007C0183E080938D019BCFC13211F483E03C
:101E600032C0CF3429F487E080937C018AE0F2CF3E
:101E7000CE3339F48091850189300CF089CF8F5FA2
:101E800008C0CC3349F48091850118160CF080CF3E
:101E90008150809385017CCFCD3429F487E08093F5
:101EA0007C018BE0D7CFC63529F487E080937C0195
:101EB0008CE0D0CFC03521F48DE080938D01B9C284
:101EC000CB3421F48EE080937C0162CFC435F1F4F1
:101ED00084E080938801109289010E94B20DC82F7E
:101EE000803229F08A3319F080538A3050F480917F
:101EF000580190915901019790935901809358018D
:101F000000C282E080937C0180E1A4CFCB3529F42C
:101F100087E080937C0182E19DCFCD3529F487E075
:101F200080937C0184E196CFCA3219F410927C012F
:101F30002FCFCC2309F07DC2809158019091590197
:101F40000197909359018093580173C2823009F030
:101F500057C00E94B20DC82F803209F45FC18A3386
:101F600009F45CC180538A3008F493CFCE3221F457
:101F700080918901816013C0CF3221F48091890161
:101F800082600DC0CC3711F0CC3221F480918901F0
:101F9000846005C0CE3531F48091890188608093DA
:101FA0008901F6CECD3209F493C1CE3409F497C13C
:101FB000CD3309F494C1CB3209F498C1C33209F48A
:101FC00095C1C73519F4F092880117C0C83411F4CF
:101FD00082E011C0C13511F484E00DC0C93419F498
:101FE000E09288010AC0C33511F480E104C0C9350C
:101FF00009F00BC180E28093880110928901C8CE5C
:10200000833009F086C040918B0150918C01509330
:102010008F0140938E012091890120FF09C0CA01E0
:1020200096958795840F951F90938F0180938E01CD
:1020300021FF0BC080918E0190918F01B3010E940E
:10204000511870938F0160938E0160918801809187
:102050008E0190918F0170E00E94511822FD05C001
:1020600023FD05C020918A0103C028E001C022E0C1
:10207000332727FD3095269FC001279F900D369F5F
:10208000900D1124E3E096958795EA95E1F79093FA
:10209000910180939001681B790B70938F0160937D
:1020A0008E012091860180918401280F8091870103
:1020B000280FC091850127FF03C0245FC15004C0D1
:1020C0002C3014F02C50CF5FCA300CF0C9E0C7FDA3
:1020D000C0E044E2C402A0011124332727FD30955B
:1020E000C901880F991F820F931F480F591F485627
:1020F0005E4FFA01059114914E5F5F4FFA01D49142
:10210000C8016D2F0E94F00D84E080937C0168016E
:102110003FCE8430D9F420917A0130917B018091B7
:102120009001909191012817390708F485C1281B67
:10213000390B30937B0120937A0180918E0190912D
:102140008F01009709F46BC185E0BDCE853039F46D
:102150008FEF90E060E00E94F00D86E0B4CE863014
:1021600099F420917A0130917B0180918E019091B8
:102170008F012817390708F45FC1281B390B3093EA
:102180007B0120937A014BC1873099F480918D01B6
:1021900080937C010E94B20DD82F803209F4F7CDD4
:1021A0008A3309F4F4CD80538A3008F042C1D82F25
:1021B000EFCD883081F40E94B20DC82F803211F02B
:1021C0008A3319F40E94B20DC82F89E080937C01F4
:1021D000CC24DD24DDCD893021F513C0C601880F64
:1021E000991F43E0CC0CDD1C4A95E1F78C0D9D1D39
:1021F000C22EDD24C7FCD094C80ED91E0E94B20D99
:10220000C82F2C2F20532A3048F3809158019091E9
:1022100059010197909359018093580180918D0144
:1022200052CE8A3019F4D0938501F9C08B3031F445
:10223000D9300CF0D8E0D0938A01F1C08C3061F431
:10224000DD2311F481E005C0D150D8300CF0D7E087
:1022500080E00E94010EE3C08D3051F4FCE0CF1607
:10226000D10418F4C0928701DAC010928701D7C058
:102270008E3099F4ADE7B1E080E090E0FC01EF56DC
:10228000FE4FE491ED93019687309105B9F7F092F6
:10229000860150927C01D7E07BCD8F3081F50E9482
:1022A000B20DC82FC154C73080F48C2F992787FDF9
:1022B0009095FC01EF56FE4FD49120918601D20FEC
:1022C00083589E4FFC01D08363CDC82F8D3219F403
:1022D000A09286015DCD8E3411F08D3319F41092E9
:1022E000860156CD8B3211F0833219F4F0928601BB
:1022F0004FCD809158019091590101978CC0803148
:1023000029F4E0927C0190928D0142CD8131C1F59A
:10231000C114D10419F488E7C82ED12C609188012A
:1023200070E080E090E02CE732E940E050E00E946D
:102330003218960140E050E00E94651889019A0128
:10234000A80110938C0100938B012091890120FF3B
:1023500009C0CA0196958795840F951F90938C01AB
:1023600080938B0121FF5BC080918B0190918C0148
:10237000B3010E94511870938C0160938B014FC080
:10238000823129F4E0927C0180928D0101CD83316C
:1023900011F5FFEFCF16D10420F4C114D10429F0B8
:1023A00007C01EEFC12ED12C03C0BFEFCB2ED12C06
:1023B0008D2F992787FD9095FC01EE0FFF1FE80FE9
:1023C000F91FE55AFE4FC282809158019091590140
:1023D0009183808324C0843129F52D2F332727FD55
:1023E0003095A901440F551FFA01E20FF31FE55A7A
:1023F000FE4F6281662399F080819181009779F088
:102400006F3F11F061506283240F351F255A3E4FF4
:10241000F901808191819093590180935801F09244
:102420007C01B6CC853129F40E94090E10927C0102
:1024300003C0B0927C01ACCCDF91CF911F910F9182
:10244000FF90EF90DF90CF90BF90AF909F908F90D4
:102450007F906F905F900895E8E6F0E080818B7F39
:10246000808310929601109295011092940110921F
:1024700093011092920154985598569857985C98E9
:102480005D985E985F98ADE6B0E08C91806A8C9321
:102490008081846080830895809196010895809161
:1024A000950110929501089580919501089580916C
:1024B00093011092930108958091930108951F92C2
:1024C0000F920FB60F9211242F938F939F9380E05A
:1024D0004C9981E04D9982604E9984604F99886053
:1024E00090919601982791FF17C0209194012F5F3A
:1024F00020939401282F217081FF03C0222319F01B
:1025000006C0222321F020919501215003C0209183
:1025100095012F5F2093950193FF17C09091920131
:102520009F5F90939201982F947083FF03C099232B
:1025300019F006C0992321F090919301915003C0A6
:10254000909193019F5F90939301809396019F9147
:102550008F912F910F900FBE0F901F901895E1EC67
:10256000F0E080818F7780830895E1ECF0E0808156
:10257000806880830895E1ECF0E080818F7D808326
:102580000895E1ECF0E080818062808308959FB738
:10259000F894882321F080919502806203C0809195
:1025A00095028F7D809395029FBF08959FB7F89401
:1025B000882321F080919602806203C08091960268
:1025C0008F7D809396029FBF08958091950284FF2E
:1025D00007C08091C0008095881F8827881F0895B4
:1025E00080919502817008958091950284FF04C0C6
:1025F0008091C0008078089580919502827008953E
:102600001F93CF93DF930F92CDB7DEB780919502E2
:1026100084FD24C01FB7F8940E94AF121FBF8091A1
:10262000950281FD12C090919801809197019817B1
:1026300028F0809198019091970105C080919801B0
:1026400090919701805F891B01C080E11FB7F894CA
:1026500089830E94B5121FBF898101C080E00F905D
:10266000DF91CF911F9108951F93CF93DF930F9226
:10267000CDB7DEB78091950284FD24C01FB7F894D2
:102680000E94AF121FBF8091950280FD12C09091F1
:10269000980180919701981730F08091970190915F
:1026A0009801805F04C08091970190919801891BE7
:1026B00001C080E11FB7F89489830E94B5121FBF43
:1026C000898101C080E00F90DF91CF911F91089523
:1026D0008091960284FF04C08091C00080720895AA
:1026E00080919602817008958091960284FF07C0C0
:1026F0009091C00081E095FF05C080E00895809131
:102700009602827008958091960284FF07C090918E
:10271000C00081E096FD11C080E00895809196028E
:1027200080FF09C02091C00081E090E026FD05C037
:1027300080E090E0089580E090E008951F93CF93AB
:10274000DF930F92CDB7DEB78091960284FD28C04B
:102750001FB7F8940E94BB121FBF8091960281FDA3
:1027600012C09091970280919802981728F080915A
:1027700097029091980205C08091970290919802DB
:10278000805E891B01C080E29091960290FD09C095
:102790001FB7F89489830E94C1121FBF898101C0AD
:1027A00080E00F90DF91CF911F9108951F93CF93F9
:1027B000DF930F92CDB7DEB78091960284FD28C0DB
:1027C0001FB7F8940E94BB121FBF8091960280FD34
:1027D00012C09091970280919802981730F08091E2
:1027E000980290919702805E04C080919802909127
:1027F0009702891B01C080E29091960290FD09C06A
:102800001FB7F89489830E94C1121FBF898101C03C
:1028100080E00F90DF91CF911F910895AF92BF920A
:10282000CF92DF92EF92FF921F93CF93DF9300D06E
:10283000CDB7DEB7162F009729F021E08C32920732
:1028400020F005C080E09BE402C08CE291E09C0196
:1028500040E050E060E4C62E62E4D62E6FE0E62E43
:10286000F12CC701B6010E946518590140E050E003
:10287000C701B6010E946518C9011092C1001092EB
:10288000C200109298011092970110929502109236
:102890009702109298021092960220919502216060
:1028A0002093950220919602216020939602209118
:1028B00096022062209396020894A108B108B09273
:1028C000C500A092C400599A589A519A509826E08F
:1028D0002093C20028E12093C100112311F012308F
:1028E00031F42091950220612093950206C08983DE
:1028F0009A830E94B5129A818981123028F420911E
:1029000096022061209396020F900F90DF91CF9155
:102910001F91FF90EF90DF90CF90BF90AF90089500
:10292000CF93DF938091950284FF10C08091950230
:1029300085FF05C08091C00087FFFCCF04C0809157
:10294000C00087FF3DC08091C60038C080919502CD
:1029500085FF05C08091950280FDFCCF04C0809169
:10296000950280FD2DC0CFB7F8940E94AF12CFBF63
:1029700080919701E82FF0E0E754FE4FC0818F5F10
:102980008093970180919701803110F01092970108
:10299000809195028D7F809395029091980180910E
:1029A0009701981729F48091950281608093950290
:1029B000DFB7F8940E94B512DFBF8C2F90E002C001
:1029C0008FEF9FEFDF91CF9108958091950284FF63
:1029D00008C08091C00087FF0EC08091C60090E0C3
:1029E00008958091950280FD03C00E94901408957F
:1029F00080E090E0089580E090E008951F93CF93E9
:102A0000DF930F92CDB7DEB79091960294FF10C07E
:102A10009091960295FF05C09091C00095FFFCCF64
:102A200004C09091C00095FF3CC08093C60039C09F
:102A30009091960295FF05C09091960291FDFCCF72
:102A400004C09091960291FD2CC01FB7F894898321
:102A50000E94BB121FBF90919702E92FF0E0E7564A
:102A6000FE4F898180839F5F9093970280919702A8
:102A7000803210F010929702809196028E7F8093A0
:102A800096029091970280919802981729F480916C
:102A900096028260809396021FB7F8940E94C1123A
:102AA0001FBF0F90DF91CF911F910895CF93C82F33
:102AB0008A3039F480919602803419F08DE00E94BA
:102AC00056158091960284FF07C08091C00085FF53
:102AD000FCCFC093C60007C08091960281FDFCCF59
:102AE0008C2F0E94FE1480E090E0CF9108959FB754
:102AF000F894882321F080919602806403C080912D
:102B000096028F7B809396029FBF08958DE00E946E
:102B1000FE148AE00E94FE1408958F708A3010F42B
:102B2000805D01C0895C0E94FE140895CF93C82F78
:102B300082958F700E948D158C2F0E948D15CF91DC
:102B400008951F93CF93DF93D82FC8E011E38D2F03
:102B50008095881F8827881F912F981B892F0E9496
:102B6000FE14DD0FC15099F7DF91CF911F910895A9
:102B7000CF93DF93EC018991882319F00E94FE1412
:102B8000FACFDF91CF910895CF93DF93EC01FE014F
:102B900021968491882319F00E94FE14F8CFDF91CA
:102BA000CF9108951F920F920FB60F9211242F9379
:102BB0003F934F935F936F937F938F939F93AF93C5
:102BC000BF93EF93FF930E94AF1278949091C60049
:102BD0009093C9018091950281FD24C08091980154
:102BE000E82FF0E0E754FE4F90838F5F80939801C9
:102BF00080919801803110F0109298018091950297
:102C00008E7F8093950290919801809197019817FB
:102C100031F48091950282608093950203C0F8940C
:102C20000E94B512FF91EF91BF91AF919F918F914B
:102C30007F916F915F914F913F912F910F900FBEB8
:102C40000F901F9018951F920F920FB60F9211249C
:102C50002F933F934F935F936F937F938F939F93A4
:102C6000AF93BF93EF93FF930E94BB127894809130
:102C7000960280FD26C080919802E82FF0E0E7568A
:102C8000FE4F90819093C6008F5F80939802809151
:102C90009802803210F010929802809196028D7FF7
:102CA000809396029091970280919802981731F440
:102CB0008091960281608093960203C0F8940E94EE
:102CC000C112FF91EF91BF91AF919F918F917F9131
:102CD0006F915F914F913F912F910F900FBE0F9089
:102CE0001F90189588E78CBD80E48DBD1EBC239A8B
:102CF000259A229A389A2A98409A0895FC0106C08B
:102D000081918EBD0DB407FEFDCF61506623C1F7E2
:102D10002A9A2A98089515BC82E084BD16BC93E6D1
:102D200097BD18BC80936E0087E085BB81E792E079
:102D30009093DC018093DB0184E085BD08950F93BF
:102D40001F93CF93DF938C01EDEDF1E040E050E075
:102D5000842F9FB7F894EA01CC0FDD1FDE01A55345
:102D6000BE4F2D913C9111979FBF21153105F9F46C
:102D70002081318121153105D1F49FB7F894119646
:102D80001C930E93662321F0C352DE4F19830883F0
:102D90005091CA0121E030E002C0220F331F4A9552
:102DA000E2F7209525232093CA019FBF07C04F5FFC
:102DB0005F4F32964830510559F68FEFDF91CF9132
:102DC0001F910F9108952FB7F89490E0880F991FE5
:102DD000FC01E553FE4F1182108283529E4FFC018D
:102DE000118210822FBF08959FB7F894282F30E0EA
:102DF000220F331FF901E553FE4F71836083442393
:102E000029F023523E4FF901718360834091CA013A
:102E100021E030E002C0220F331F8A95E2F72095AF
:102E200024232093CA019FBF08959FB7F894282FA9
:102E300030E0220F331FF901E352FE4F40815181F0
:102E400025533E4FF901518340834091CA0121E04F
:102E500030E002C0220F331F8A95E2F72095242329
:102E60002093CA019FBF08952FB7F894E82FF0E090
:102E7000EE0FFF1FE553FE4F808191812FBF089514
:102E800021E030E002C0220F331F8A95E2F79FB79E
:102E9000F8948091CA012823662339F03091CA0141
:102EA000822F809583238093CA019FBF81E02223D4
:102EB00009F480E008958091CA0108951F920F924D
:102EC0000FB60F9211242F933F934F935F936F93FD
:102ED0007F938F939F93AF93BF93EF93FF930E9442
:102EE000B70C0E941808ADEDB1E020E030E061E0E1
:102EF000A901440F551FFA01E553FE4F80819181CE
:102F0000009779F0019741F48D919C911197709100
:102F1000CA01762B7093CA01FA01E553FE4F9183E3
:102F20008083660F2F5F3F4F12962830310501F7DF
:102F30000E94940E8091DB019091DC0101979093A7
:102F4000DC018093DB01009761F481E792E09093CC
:102F5000DC018093DB010E945D0986E260E00E9453
:102F6000D109FF91EF91BF91AF919F918F917F9187
:102F70006F915F914F913F912F910F900FBE0F90E6
:102F80001F901895CF93DF938FE284B981E087B9C2
:102F900082E08AB915B88FE388B98CE08BB91092BA
:102FA00080001092810080E096E963E00E940E1498
:102FB0000E9472160E942C120E948B160E94D80D3D
:102FC0000E94330981E00E945A0981E00E94D807DB
:102FD00081E091E090939A028093990290939C02F1
:102FE00080939B0290939E0280939D02C7E8D2E05B
:102FF000CE016DE672E04DEE51E00E940B0D89E7C7
:1030000092E063E772E04DE252E00E940B0DCE01C8
:103010000E94260D81E00E94F60C789488EE93E0E1
:103020000E94AA0900D000D083E791E0EDB7FEB777
:103030009283818382E491E0948383830E94F518D4
:103040000F900F900F900F9088E191E061E00E9447
:10305000140E0E9478070E94090680E090E0DF913C
:10306000CF910895629FD001739FF001829FE00D80
:10307000F11D649FE00DF11D929FF00D839FF00DF7
:10308000749FF00D659FF00D9927729FB00DE11DA3
:10309000F91F639FB00DE11DF91FBD01CF01112480
:1030A0000895AA1BBB1B51E107C0AA1FBB1FA6178F
:1030B000B70710F0A61BB70B881F991F5A95A9F7E1
:1030C00080959095BC01CD010895A1E21A2EAA1B0E
:1030D000BB1BFD010DC0AA1FBB1FEE1FFF1FA217C8
:1030E000B307E407F50720F0A21BB30BE40BF50BC5
:1030F000661F771F881F991F1A9469F7609570954E
:10310000809590959B01AC01BD01CF010895A0E091
:10311000B0E0EDE8F8E10C94801B0F811885AE015A
:10312000455F5F4FF801838188608383C8016985AB
:103130007A850E941819F8012381277F238320961E
:10314000E4E00C949C1B0F931F93CF93DF938C01AF
:10315000EB018B8181FF1BC082FF0DC02E813F815F
:103160008C819D812817390764F4E881F9810193E6
:10317000F983E88306C0E885F985802F09950097D3
:1031800031F48E819F8101969F838E8302C00FEF61
:103190001FEFC801DF91CF911F910F910895EF921A
:1031A000FF920F931F93CF93DF937C01EB018B81F1
:1031B00081FF13C000E010E00BC0E885F985BE0177
:1031C0000995009711F00FEF1FEF0894E11CF11C17
:1031D000F7018491882389F702C00FEF1FEFC80120
:1031E000CDB7DEB7E6E00C949A1BA0E0B0E0EBEFC1
:1031F000F8E10C94821BFE013596619171918091EA
:103200009B0290919C02DC0113962C9113972860ED
:1032100013962C93AF010E941819E0919B02F09134
:103220009C022381277F23832096E2E00C949E1B3F
:10323000ADE0B0E0EEE1F9E10C94721B3C017D875A
:103240006C875A01FC0117821682838181FFC8C1F5
:103250002E010894411C511CF3019381EC85FD85DE
:1032600093FD859193FF8191FD87EC87882309F475
:10327000B3C1853241F493FD859193FF8191FD8720
:10328000EC87853229F490E0B3010E94A318E4CFC3
:10329000FF24EE2410E01032B0F48B3269F08C324F
:1032A00028F4803251F0833271F40BC08D3239F042
:1032B000803349F411602CC01260146029C018607A
:1032C00027C0106125C017FD2EC0282F20532A309B
:1032D00098F416FF08C08F2D880FF82EFF0CFF0CF6
:1032E000F80EF20E15C08E2D880FE82EEE0CEE0CA7
:1032F000E80EE20E10620CC08E3221F416FD6CC195
:10330000106406C08C3611F4106802C0883659F477
:10331000EC85FD8593FD859193FF8191FD87EC8779
:10332000882309F0B8CF982F9554933018F0905215
:10333000933038F424E030E0A20EB31E3FE339832B
:103340000FC0833631F0833781F0833509F05AC0DE
:1033500022C0F5018081898322E030E0A20EB31EF5
:1033600021E0C22ED12C420114C092E0292E312C32
:103370002A0C3B1CF5018080918016FF03C06F2D45
:1033800070E002C06FEF7FEFC4010E94091B6C0167
:1033900051011F7715C082E0282E312C2A0C3B1CCE
:1033A000F5018080918016FF03C06F2D70E002C090
:1033B0006FEF7FEFC4010E94FE1A6C01106851018B
:1033C00013FD1CC006C080E290E0B3010E94A31868
:1033D000EA948E2D90E0C816D906A8F30FC0F40128
:1033E00017FD859117FF81914F0190E0B3010E9475
:1033F000A318E110EA940894C108D108C114D104BB
:1034000071F7E7C0843611F0893651F5F50117FFE1
:1034100007C080819181A281B38124E030E008C09F
:1034200080819181AA2797FDA095BA2F22E030E0F4
:10343000A20EB31E012F0F76B7FF08C0B095A0955E
:10344000909581959F4FAF4FBF4F0068BC01CD0154
:10345000A2012AE030E00E94141BD82ED4183FC0ED
:10346000853721F41F7E2AE030E020C0197F8F3697
:10347000A9F0803720F4883509F0AEC00BC0803742
:1034800021F0883709F0A8C001C0106114FF09C0FD
:10349000146007C014FF08C0166006C028E030E0C2
:1034A00005C020E130E002C020E132E0F50117FF65
:1034B00007C0608171818281938144E050E006C041
:1034C0006081718180E090E042E050E0A40EB51E82
:1034D000A2010E94141BD82ED418012F0F7706FFCB
:1034E00009C00E7FDF1430F404FF06C002FD04C0E3
:1034F0000F7E02C01D2D01C01F2D802F90E004FF04
:103500000CC0FE01ED0DF11D2081203311F4097E68
:1035100009C002FF06C01E5F05C086789070009744
:1035200009F01F5F802E992403FD12C000FF0DC01B
:10353000FD2C1E1550F4FE0CF11A1E2D06C080E263
:1035400090E0B3010E94A3181F5F1E15C0F304C0D2
:103550001E1510F4E11A01C0EE2484FE0FC080E3B2
:1035600090E0B3010E94A31882FE1FC081FE03C039
:1035700088E590E010C088E790E00DC0C40186782F
:103580009070009791F081FC02C080E201C08BE254
:1035900007FD8DE290E0B3010E94A31806C080E30E
:1035A00090E0B3010E94A318FA94DF14C0F3DA94F8
:1035B000F201ED0DF11D808190E0B3010E94A3188E
:1035C000DD20A9F706C080E290E0B3010E94A318B5
:1035D000EA94EE20C1F740CEF3018681978102C0C4
:1035E0008FEF9FEF2D96E2E10C948E1BF999FECFA1
:1035F00092BD81BDF89A992780B50895FC01059088
:10360000615070400110D8F7809590958E0F9F1FE4
:103610000895FC016150704001900110D8F7809529
:1036200090958E0F9F1F0895FA01AA27283051F117
:10363000203181F1E8946F936E7F6E5F7F4F8F4FE3
:103640009F4FAF4FB1E03ED0B4E03CD0670F781F42
:10365000891F9A1FA11D680F791F8A1F911DA11D27
:103660006A0F711D811D911DA11D20D009F4689460
:103670003F912AE0269F11243019305D3193DEF608
:10368000CF010895462F4770405D4193B3E00FD0BE
:10369000C9F7F6CF462F4F70405D4A3318F0495DA9
:1036A00031FD4052419302D0A9F7EACFB4E0A6958C
:1036B0009795879577956795BA95C9F700976105AE
:1036C000710508959B01AC010A2E06945795479504
:1036D00037952795BA95C9F7620F731F841F951FF9
:1036E000A01D08952F923F924F925F926F927F920A
:1036F0008F929F92AF92BF92CF92DF92EF92FF9202
:103700000F931F93CF93DF93CDB7DEB7CA1BDB0BAD
:103710000FB6F894DEBF0FBECDBF09942A88398852
:1037200048885F846E847D848C849B84AA84B98459
:10373000C884DF80EE80FD800C811B81AA81B98165
:10374000CE0FD11D0FB6F894DEBF0FBECDBFED0179
:063750000895F894FFCF7C
:103756008000000003000000005615E5140000007C
:00000001FF
